:040000000C943C0020
:040024000C94070130
:14005400000100010001000100000000000000010000000093
:0F00680000000001000000000000000000000088
:14007800CFE5D4E0CDBFDEBFCE51D0400AEA08830024E3E846
:14008C00F0E010E0E438F10711F00192FBCF0083E4E5F0E012
:1400A000A0E6B0E010E000E00BBFE737F10721F0C895319651
:1400B4000D92F9CF0E94F900FFCF2224209283000AC00150D2
:1400C800104000300107D9F7809183008F5F809383008091A3
:1400DC0083008A30A0F3089522242092830025C040908300F0
:1400F00088E690E0E42DFF27E80FF91F208080E690E0E42D51
:14010400FF27E80FF91F3080322880E790E0E42DFF27E80FA3
:14011800F91F2080322888E790E0E42DFF27E80FF91F3082EA
:14012C00809183008F5F8093830087E0209083008215B0F6D0
:1401400008950E943E016801C098AA2419C0EA2DFF27EC0D8F
:14015400FD1D2080222049F4C09A02E010E0ADDFC09801E06D
:1401680010E0A9DF08C0C09A02E010E0A4DFC0980AE010E062
:14017C00A0DFA3948A2D883020F30C943301C09A0AE010E02F
:1401900096DFC09801E010E092DF00E610E0D1DF08E610E0E8
:1401A400CEDF00E710E0CBDF08E710E0C8DFC09A04E110E064
:1401B80082DFC09801E010E07ECF222423BE8BE882BF85E01C
:1401CC0083BF0895F8948FEF8ABB8BEF8BBB8FEF87BB84E00D
:1401E00088BBEFDF222425BE2BBE81E089BF78940895EEDFC9
:1401F40077DF09C080918200813029F4C4DF2224209282005A
:14020800C29AF6CF08952A923A928A939A93AA93EA932FB6B3
:14021C002A928BE882BF8091800090918100019690938100F0
:14023000809380008436E0E09E0761F481E080938200222477
:140244003324309281002092800088B38B7F88BB29902FBEAC
:14025800E991A99199918991399029901895A990B990C99090
:14026C00D99008957A936A935A934A93FA92EA92DA92CA92D4
:06028000BA92AA92089553
:00000001FF
